{
  "contractName": "Lottery",
  "abi": [
    {
      "inputs": [],
      "stateMutability": "nonpayable",
      "type": "constructor"
    },
    {
      "inputs": [],
      "name": "manager",
      "outputs": [
        {
          "internalType": "address",
          "name": "",
          "type": "address"
        }
      ],
      "stateMutability": "view",
      "type": "function",
      "constant": true
    },
    {
      "inputs": [
        {
          "internalType": "uint256",
          "name": "",
          "type": "uint256"
        }
      ],
      "name": "players",
      "outputs": [
        {
          "internalType": "address",
          "name": "",
          "type": "address"
        }
      ],
      "stateMutability": "view",
      "type": "function",
      "constant": true
    },
    {
      "inputs": [],
      "name": "getManager",
      "outputs": [
        {
          "internalType": "address",
          "name": "",
          "type": "address"
        }
      ],
      "stateMutability": "view",
      "type": "function",
      "constant": true
    },
    {
      "inputs": [],
      "name": "enter",
      "outputs": [],
      "stateMutability": "payable",
      "type": "function",
      "payable": true
    },
    {
      "inputs": [],
      "name": "pickWinner",
      "outputs": [],
      "stateMutability": "payable",
      "type": "function",
      "payable": true
    },
    {
      "inputs": [],
      "name": "getPlayers",
      "outputs": [
        {
          "internalType": "address[]",
          "name": "",
          "type": "address[]"
        }
      ],
      "stateMutability": "view",
      "type": "function",
      "constant": true
    }
  ],
  "bytecode": "0x608060405234801561001057600080fd5b50336000806101000a81548173ffffffffffffffffffffffffffffffffffffffff021916908373ffffffffffffffffffffffffffffffffffffffff160217905550610a91806100606000396000f3fe6080604052600436106100555760003560e01c8063481c6a751461005a5780635d495aea146100855780638b5b9ccc1461008f578063d5009584146100ba578063e97dcb62146100e5578063f71d96cb146100ef575b600080fd5b34801561006657600080fd5b5061006f61012c565b60405161007c91906105c2565b60405180910390f35b61008d610150565b005b34801561009b57600080fd5b506100a4610300565b6040516100b1919061069b565b60405180910390f35b3480156100c657600080fd5b506100cf61038e565b6040516100dc91906105c2565b60405180910390f35b6100ed6103b7565b005b3480156100fb57600080fd5b50610116600480360381019061011191906106f8565b610465565b60405161012391906105c2565b60405180910390f35b60008054906101000a900473ffffffffffffffffffffffffffffffffffffffff1681565b604051806060016040528060218152602001610a3b6021913960008054906101000a900473ffffffffffffffffffffffffffffffffffffffff1673ffffffffffffffffffffffffffffffffffffffff163373ffffffffffffffffffffffffffffffffffffffff161481906101fa576040517f08c379a00000000000000000000000000000000000000000000000000000000081526004016101f191906107b5565b60405180910390fd5b50600060018054905061020b6104a4565b6102159190610806565b90506001818154811061022b5761022a610837565b5b9060005260206000200160009054906101000a900473ffffffffffffffffffffffffffffffffffffffff1673ffffffffffffffffffffffffffffffffffffffff166108fc479081150290604051600060405180830381858888f1935050505015801561029b573d6000803e3d6000fd5b50600067ffffffffffffffff8111156102b7576102b6610866565b5b6040519080825280602002602001820160405280156102e55781602001602082028036833780820191505090505b50600190805190602001906102fb9291906104da565b505050565b6060600180548060200260200160405190810160405280929190818152602001828054801561038457602002820191906000526020600020905b8160009054906101000a900473ffffffffffffffffffffffffffffffffffffffff1673ffffffffffffffffffffffffffffffffffffffff168152602001906001019080831161033a575b5050505050905090565b60008060009054906101000a900473ffffffffffffffffffffffffffffffffffffffff16905090565b66038d7ea4c680003411610400576040517f08c379a00000000000000000000000000000000000000000000000000000000081526004016103f7906108e1565b60405180910390fd5b6001339080600181540180825580915050600190039060005260206000200160009091909190916101000a81548173ffffffffffffffffffffffffffffffffffffffff021916908373ffffffffffffffffffffffffffffffffffffffff160217905550565b6001818154811061047557600080fd5b906000526020600020016000915054906101000a900473ffffffffffffffffffffffffffffffffffffffff1681565b6000444260016040516020016104bc939291906109fc565b6040516020818303038152906040528051906020012060001c905090565b828054828255906000526020600020908101928215610553579160200282015b828111156105525782518260006101000a81548173ffffffffffffffffffffffffffffffffffffffff021916908373ffffffffffffffffffffffffffffffffffffffff160217905550916020019190600101906104fa565b5b5090506105609190610564565b5090565b5b8082111561057d576000816000905550600101610565565b5090565b600073ffffffffffffffffffffffffffffffffffffffff82169050919050565b60006105ac82610581565b9050919050565b6105bc816105a1565b82525050565b60006020820190506105d760008301846105b3565b92915050565b600081519050919050565b600082825260208201905092915050565b6000819050602082019050919050565b610612816105a1565b82525050565b60006106248383610609565b60208301905092915050565b6000602082019050919050565b6000610648826105dd565b61065281856105e8565b935061065d836105f9565b8060005b8381101561068e5781516106758882610618565b975061068083610630565b925050600181019050610661565b5085935050505092915050565b600060208201905081810360008301526106b5818461063d565b905092915050565b600080fd5b6000819050919050565b6106d5816106c2565b81146106e057600080fd5b50565b6000813590506106f2816106cc565b92915050565b60006020828403121561070e5761070d6106bd565b5b600061071c848285016106e3565b91505092915050565b600081519050919050565b600082825260208201905092915050565b60005b8381101561075f578082015181840152602081019050610744565b60008484015250505050565b6000601f19601f8301169050919050565b600061078782610725565b6107918185610730565b93506107a1818560208601610741565b6107aa8161076b565b840191505092915050565b600060208201905081810360008301526107cf818461077c565b905092915050565b7f4e487b7100000000000000000000000000000000000000000000000000000000600052601260045260246000fd5b6000610811826106c2565b915061081c836106c2565b92508261082c5761082b6107d7565b5b828206905092915050565b7f4e487b7100000000000000000000000000000000000000000000000000000000600052603260045260246000fd5b7f4e487b7100000000000000000000000000000000000000000000000000000000600052604160045260246000fd5b7f4e6f7420656e6f7567682065746865722073656e740000000000000000000000600082015250565b60006108cb601583610730565b91506108d682610895565b602082019050919050565b600060208201905081810360008301526108fa816108be565b9050919050565b61090a816106c2565b82525050565b600081549050919050565b60008190508160005260206000209050919050565b60008160001c9050919050565b600073ffffffffffffffffffffffffffffffffffffffff82169050919050565b600061097061096b83610930565b61093d565b9050919050565b6000610983825461095d565b9050919050565b6000600182019050919050565b60006109a282610910565b6109ac81856105e8565b93506109b78361091b565b8060005b838110156109ef576109cc82610977565b6109d68882610618565b97506109e18361098a565b9250506001810190506109bb565b5085935050505092915050565b6000606082019050610a116000830186610901565b610a1e6020830185610901565b8181036040830152610a308184610997565b905094935050505056fe4e65656420746f206265206d616e6167657220746f207069636b2077696e6e6572a2646970667358221220ac6d486e99524ce05a50b7f560c84ef20be556c590bbb03e69111501e140a27264736f6c63430008100033",
  "immutableReferences": {},
  "source": "// SPDX-License-Identifier: UNLICENSED\npragma solidity ^0.8.16;\n\ncontract Lottery {\n  address public manager;\n  address[] public players;\n\n  constructor() {\n    manager = msg.sender;\n  }\n\n  function getManager() public view returns (address) {\n    return manager;\n  }\n\n  function enter() public payable {\n    // instance.enter({from: add, value: web3.utils.toWei('.001', 'ether')})\n    require(msg.value > .001 ether, 'Not enough ether sent');\n    players.push(msg.sender);\n  }\n\n  function getRandNum() private view returns (uint) {\n    return uint(keccak256(abi.encode(block.difficulty, block.timestamp, players)));\n  }\n\n  function pickWinner() public payable restricted('Need to be manager to pick winner') {\n    uint index = getRandNum() % players.length;\n    payable(players[index]).transfer(address(this).balance);\n    players = new address[](0);\n  }\n\n  modifier restricted(string memory message) {\n    require(msg.sender == manager, message);\n    _;\n  }\n\n  function getPlayers() public view returns (address[] memory) {\n    return players;\n  }\n}\n",
  "sourcePath": "/Users/jeffkang/blockchain/ethereum/sol_course/project_3/contracts/Lottery.sol",
  "compiler": {
    "name": "solc",
    "version": "0.8.16+commit.07a7930e.Emscripten.clang"
  },
  "schemaVersion": "3.4.9",
  "updatedAt": "2022-09-24T20:32:26.465Z",
  "networkType": "ethereum",
  "devdoc": {
    "kind": "dev",
    "methods": {},
    "version": 1
  },
  "userdoc": {
    "kind": "user",
    "methods": {},
    "version": 1
  }
}