{
  "contractName": "Campaign",
  "abi": [
    {
      "inputs": [
        {
          "internalType": "uint256",
          "name": "min",
          "type": "uint256"
        },
        {
          "internalType": "address",
          "name": "creator",
          "type": "address"
        }
      ],
      "stateMutability": "nonpayable",
      "type": "constructor"
    },
    {
      "inputs": [
        {
          "internalType": "uint256",
          "name": "",
          "type": "uint256"
        },
        {
          "internalType": "address",
          "name": "",
          "type": "address"
        }
      ],
      "name": "approvals",
      "outputs": [
        {
          "internalType": "bool",
          "name": "",
          "type": "bool"
        }
      ],
      "stateMutability": "view",
      "type": "function"
    },
    {
      "inputs": [
        {
          "internalType": "address",
          "name": "",
          "type": "address"
        }
      ],
      "name": "approvers",
      "outputs": [
        {
          "internalType": "bool",
          "name": "",
          "type": "bool"
        }
      ],
      "stateMutability": "view",
      "type": "function"
    },
    {
      "inputs": [],
      "name": "approversCount",
      "outputs": [
        {
          "internalType": "uint256",
          "name": "",
          "type": "uint256"
        }
      ],
      "stateMutability": "view",
      "type": "function"
    },
    {
      "inputs": [],
      "name": "manager",
      "outputs": [
        {
          "internalType": "address",
          "name": "",
          "type": "address"
        }
      ],
      "stateMutability": "view",
      "type": "function"
    },
    {
      "inputs": [],
      "name": "minimumContribution",
      "outputs": [
        {
          "internalType": "uint256",
          "name": "",
          "type": "uint256"
        }
      ],
      "stateMutability": "view",
      "type": "function"
    },
    {
      "inputs": [
        {
          "internalType": "uint256",
          "name": "",
          "type": "uint256"
        }
      ],
      "name": "requests",
      "outputs": [
        {
          "internalType": "string",
          "name": "description",
          "type": "string"
        },
        {
          "internalType": "uint256",
          "name": "value",
          "type": "uint256"
        },
        {
          "internalType": "address payable",
          "name": "recipient",
          "type": "address"
        },
        {
          "internalType": "uint256",
          "name": "approvalCount",
          "type": "uint256"
        },
        {
          "internalType": "bool",
          "name": "complete",
          "type": "bool"
        }
      ],
      "stateMutability": "view",
      "type": "function"
    },
    {
      "inputs": [],
      "name": "contribute",
      "outputs": [],
      "stateMutability": "payable",
      "type": "function"
    },
    {
      "inputs": [
        {
          "internalType": "string",
          "name": "description",
          "type": "string"
        },
        {
          "internalType": "uint256",
          "name": "value",
          "type": "uint256"
        },
        {
          "internalType": "address payable",
          "name": "recipient",
          "type": "address"
        }
      ],
      "name": "createRequest",
      "outputs": [],
      "stateMutability": "nonpayable",
      "type": "function"
    },
    {
      "inputs": [
        {
          "internalType": "uint256",
          "name": "index",
          "type": "uint256"
        }
      ],
      "name": "approveRequest",
      "outputs": [],
      "stateMutability": "nonpayable",
      "type": "function"
    },
    {
      "inputs": [
        {
          "internalType": "uint256",
          "name": "index",
          "type": "uint256"
        }
      ],
      "name": "finalizeRequest",
      "outputs": [],
      "stateMutability": "payable",
      "type": "function"
    }
  ],
  "bytecode": "0x60806040523480156200001157600080fd5b50604051620015d5380380620015d583398181016040528101906200003791906200012b565b806000806101000a81548173ffffffffffffffffffffffffffffffffffffffff021916908373ffffffffffffffffffffffffffffffffffffffff16021790555081600181905550505062000172565b600080fd5b6000819050919050565b620000a0816200008b565b8114620000ac57600080fd5b50565b600081519050620000c08162000095565b92915050565b600073ffffffffffffffffffffffffffffffffffffffff82169050919050565b6000620000f382620000c6565b9050919050565b6200010581620000e6565b81146200011157600080fd5b50565b6000815190506200012581620000fa565b92915050565b6000806040838503121562000145576200014462000086565b5b60006200015585828601620000af565b9250506020620001688582860162000114565b9150509250929050565b61145380620001826000396000f3fe6080604052600436106100915760003560e01c80638a9cfd55116100595780638a9cfd5514610186578063937e09b1146101af578063ab2850da146101da578063d7bb99ba14610217578063d7d1bbdb1461022157610091565b806303441006146100965780630a144391146100b2578063481c6a75146100ef57806381d12c581461011a57806382fde0931461015b575b600080fd5b6100b060048036038101906100ab9190610a09565b61024a565b005b3480156100be57600080fd5b506100d960048036038101906100d49190610a94565b6103ff565b6040516100e69190610adc565b60405180910390f35b3480156100fb57600080fd5b5061010461041f565b6040516101119190610b06565b60405180910390f35b34801561012657600080fd5b50610141600480360381019061013c9190610a09565b610443565b604051610152959493929190610be1565b60405180910390f35b34801561016757600080fd5b5061017061053e565b60405161017d9190610c3b565b60405180910390f35b34801561019257600080fd5b506101ad60048036038101906101a89190610ce7565b610544565b005b3480156101bb57600080fd5b506101c46106eb565b6040516101d19190610c3b565b60405180910390f35b3480156101e657600080fd5b5061020160048036038101906101fc9190610d5b565b6106f1565b60405161020e9190610adc565b60405180910390f35b61021f610720565b005b34801561022d57600080fd5b5061024860048036038101906102439190610a09565b6107f8565b005b60008054906101000a900473ffffffffffffffffffffffffffffffffffffffff1673ffffffffffffffffffffffffffffffffffffffff163373ffffffffffffffffffffffffffffffffffffffff16146102a257600080fd5b6000600482815481106102b8576102b7610d9b565b5b906000526020600020906005020190508060040160009054906101000a900460ff161561031a576040517f08c379a000000000000000000000000000000000000000000000000000000000815260040161031190610e3c565b60405180910390fd5b60026003546103299190610eba565b8160030154101561036f576040517f08c379a000000000000000000000000000000000000000000000000000000000815260040161036690610f5d565b60405180910390fd5b8060020160009054906101000a900473ffffffffffffffffffffffffffffffffffffffff1673ffffffffffffffffffffffffffffffffffffffff166108fc82600101549081150290604051600060405180830381858888f193505050501580156103dd573d6000803e3d6000fd5b5060018160040160006101000a81548160ff0219169083151502179055505050565b60026020528060005260406000206000915054906101000a900460ff1681565b60008054906101000a900473ffffffffffffffffffffffffffffffffffffffff1681565b6004818154811061045357600080fd5b906000526020600020906005020160009150905080600001805461047690610fac565b80601f01602080910402602001604051908101604052809291908181526020018280546104a290610fac565b80156104ef5780601f106104c4576101008083540402835291602001916104ef565b820191906000526020600020905b8154815290600101906020018083116104d257829003601f168201915b5050505050908060010154908060020160009054906101000a900473ffffffffffffffffffffffffffffffffffffffff16908060030154908060040160009054906101000a900460ff16905085565b60035481565b60008054906101000a900473ffffffffffffffffffffffffffffffffffffffff1673ffffffffffffffffffffffffffffffffffffffff163373ffffffffffffffffffffffffffffffffffffffff161461059c57600080fd5b60006040518060a0016040528086868080601f016020809104026020016040519081016040528093929190818152602001838380828437600081840152601f19601f8201169050808301925050505050505081526020018481526020018373ffffffffffffffffffffffffffffffffffffffff168152602001600081526020016000151581525090506004819080600181540180825580915050600190039060005260206000209060050201600090919091909150600082015181600001908161066691906111b8565b506020820151816001015560408201518160020160006101000a81548173ffffffffffffffffffffffffffffffffffffffff021916908373ffffffffffffffffffffffffffffffffffffffff1602179055506060820151816003015560808201518160040160006101000a81548160ff02191690831515021790555050505050505050565b60015481565b60056020528160005260406000206020528060005260406000206000915091509054906101000a900460ff1681565b60006040518060600160405280602b81526020016113f3602b9139905060015434118190610784576040517f08c379a000000000000000000000000000000000000000000000000000000000815260040161077b919061128a565b60405180910390fd5b506001600260003373ffffffffffffffffffffffffffffffffffffffff1673ffffffffffffffffffffffffffffffffffffffff16815260200190815260200160002060006101000a81548160ff021916908315150217905550600360008154809291906107f0906112ac565b919050555050565b600260003373ffffffffffffffffffffffffffffffffffffffff1673ffffffffffffffffffffffffffffffffffffffff16815260200190815260200160002060009054906101000a900460ff16610884576040517f08c379a000000000000000000000000000000000000000000000000000000000815260040161087b90611366565b60405180910390fd5b6005600082815260200190815260200160002060003373ffffffffffffffffffffffffffffffffffffffff1673ffffffffffffffffffffffffffffffffffffffff16815260200190815260200160002060009054906101000a900460ff1615610922576040517f08c379a0000000000000000000000000000000000000000000000000000000008152600401610919906113d2565b60405180910390fd5b6004818154811061093657610935610d9b565b5b90600052602060002090600502016003016000815480929190610958906112ac565b919050555060016005600083815260200190815260200160002060003373ffffffffffffffffffffffffffffffffffffffff1673ffffffffffffffffffffffffffffffffffffffff16815260200190815260200160002060006101000a81548160ff02191690831515021790555050565b600080fd5b600080fd5b6000819050919050565b6109e6816109d3565b81146109f157600080fd5b50565b600081359050610a03816109dd565b92915050565b600060208284031215610a1f57610a1e6109c9565b5b6000610a2d848285016109f4565b91505092915050565b600073ffffffffffffffffffffffffffffffffffffffff82169050919050565b6000610a6182610a36565b9050919050565b610a7181610a56565b8114610a7c57600080fd5b50565b600081359050610a8e81610a68565b92915050565b600060208284031215610aaa57610aa96109c9565b5b6000610ab884828501610a7f565b91505092915050565b60008115159050919050565b610ad681610ac1565b82525050565b6000602082019050610af16000830184610acd565b92915050565b610b0081610a56565b82525050565b6000602082019050610b1b6000830184610af7565b92915050565b600081519050919050565b600082825260208201905092915050565b60005b83811015610b5b578082015181840152602081019050610b40565b60008484015250505050565b6000601f19601f8301169050919050565b6000610b8382610b21565b610b8d8185610b2c565b9350610b9d818560208601610b3d565b610ba681610b67565b840191505092915050565b610bba816109d3565b82525050565b6000610bcb82610a36565b9050919050565b610bdb81610bc0565b82525050565b600060a0820190508181036000830152610bfb8188610b78565b9050610c0a6020830187610bb1565b610c176040830186610bd2565b610c246060830185610bb1565b610c316080830184610acd565b9695505050505050565b6000602082019050610c506000830184610bb1565b92915050565b600080fd5b600080fd5b600080fd5b60008083601f840112610c7b57610c7a610c56565b5b8235905067ffffffffffffffff811115610c9857610c97610c5b565b5b602083019150836001820283011115610cb457610cb3610c60565b5b9250929050565b610cc481610bc0565b8114610ccf57600080fd5b50565b600081359050610ce181610cbb565b92915050565b60008060008060608587031215610d0157610d006109c9565b5b600085013567ffffffffffffffff811115610d1f57610d1e6109ce565b5b610d2b87828801610c65565b94509450506020610d3e878288016109f4565b9250506040610d4f87828801610cd2565b91505092959194509250565b60008060408385031215610d7257610d716109c9565b5b6000610d80858286016109f4565b9250506020610d9185828601610a7f565b9150509250929050565b7f4e487b7100000000000000000000000000000000000000000000000000000000600052603260045260246000fd5b7f526571756573742068617320616c7265616479206265656e20636f6d706c657460008201527f6564000000000000000000000000000000000000000000000000000000000000602082015250565b6000610e26602283610b2c565b9150610e3182610dca565b604082019050919050565b60006020820190508181036000830152610e5581610e19565b9050919050565b7f4e487b7100000000000000000000000000000000000000000000000000000000600052601260045260246000fd5b7f4e487b7100000000000000000000000000000000000000000000000000000000600052601160045260246000fd5b6000610ec5826109d3565b9150610ed0836109d3565b925082610ee057610edf610e5c565b5b828204905092915050565b7f4d7573742072657175697265206d616a6f7269747920766f746520746f20666960008201527f6e616c697a652072657175657374000000000000000000000000000000000000602082015250565b6000610f47602e83610b2c565b9150610f5282610eeb565b604082019050919050565b60006020820190508181036000830152610f7681610f3a565b9050919050565b7f4e487b7100000000000000000000000000000000000000000000000000000000600052602260045260246000fd5b60006002820490506001821680610fc457607f821691505b602082108103610fd757610fd6610f7d565b5b50919050565b7f4e487b7100000000000000000000000000000000000000000000000000000000600052604160045260246000fd5b60008190508160005260206000209050919050565b60006020601f8301049050919050565b600082821b905092915050565b60006008830261106e7fffffffffffffffffffffffffffffffffffffffffffffffffffffffffffffffff82611031565b6110788683611031565b95508019841693508086168417925050509392505050565b6000819050919050565b60006110b56110b06110ab846109d3565b611090565b6109d3565b9050919050565b6000819050919050565b6110cf8361109a565b6110e36110db826110bc565b84845461103e565b825550505050565b600090565b6110f86110eb565b6111038184846110c6565b505050565b5b818110156111275761111c6000826110f0565b600181019050611109565b5050565b601f82111561116c5761113d8161100c565b61114684611021565b81016020851015611155578190505b61116961116185611021565b830182611108565b50505b505050565b600082821c905092915050565b600061118f60001984600802611171565b1980831691505092915050565b60006111a8838361117e565b9150826002028217905092915050565b6111c182610b21565b67ffffffffffffffff8111156111da576111d9610fdd565b5b6111e48254610fac565b6111ef82828561112b565b600060209050601f8311600181146112225760008415611210578287015190505b61121a858261119c565b865550611282565b601f1984166112308661100c565b60005b8281101561125857848901518255600182019150602085019450602081019050611233565b868310156112755784890151611271601f89168261117e565b8355505b6001600288020188555050505b505050505050565b600060208201905081810360008301526112a48184610b78565b905092915050565b60006112b7826109d3565b91507fffffffffffffffffffffffffffffffffffffffffffffffffffffffffffffffff82036112e9576112e8610e8b565b5b600182019050919050565b7f4d75737420626520616e20617070726f76657220746f20617070726f7665207260008201527f6571756573740000000000000000000000000000000000000000000000000000602082015250565b6000611350602683610b2c565b915061135b826112f4565b604082019050919050565b6000602082019050818103600083015261137f81611343565b9050919050565b7f43616e6e6f7420617070726f7665207477696365000000000000000000000000600082015250565b60006113bc601483610b2c565b91506113c782611386565b602082019050919050565b600060208201905081810360008301526113eb816113af565b905091905056fe56616c7565206d7573742062652067726561746572207468616e206d696e20636f6e747269627574696f6ea2646970667358221220a04523a110e063053d1c21d766010e37a6951583f14d382f398bee5f5df2280964736f6c63430008100033",
  "immutableReferences": {},
  "source": "// SPDX-License-Identifier: UNLICENSED\npragma solidity ^0.8.16;\n\ncontract Campaign {\n  struct Request {\n    string description;\n    uint value;\n    address payable recipient;\n    uint approvalCount;\n    bool complete;\n  }\n  address public manager;\n  uint public minimumContribution;\n  mapping(address => bool) public approvers;\n  uint public approversCount;\n  Request[] public requests;\n  // request id (in requests array) => address of approver -> boolean true false if approver in approvals\n  mapping(uint => mapping(address => bool)) public approvals;\n\n  modifier restricted() {\n    require(msg.sender == manager);\n    _;\n  }\n\n  constructor (\n    uint min,\n    address creator\n  ) {\n    manager = creator;\n    minimumContribution = min;\n  }\n\n  function contribute() public payable {\n    string memory errorMsg = \"Value must be greater than min contribution\";\n    require(msg.value > minimumContribution, errorMsg);\n    approvers[msg.sender] = true;\n    approversCount++;\n  }\n\n  function createRequest(string calldata description, uint value, address payable recipient)\n    public restricted {\n      Request memory newRequest = Request({\n        description : description,\n        value : value,\n        recipient : recipient,\n        approvalCount: 0,\n        complete: false\n      });\n      requests.push(newRequest);\n  }\n\n  function approveRequest(uint index) public {\n    require(approvers[msg.sender], \"Must be an approver to approve request\");\n    require(!approvals[index][msg.sender], \"Cannot approve twice\");\n    requests[index].approvalCount++;\n    approvals[index][msg.sender] = true;\n  }\n\n  function finalizeRequest(uint index) public payable restricted {\n    Request storage request = requests[index];\n    require(!request.complete, \"Request has already been completed\");\n    require(request.approvalCount >= approversCount / 2, \"Must require majority vote to finalize request\");\n    request.recipient.transfer(request.value);\n    request.complete = true;\n  }\n}\n",
  "sourcePath": "/Users/jeffkang/blockchain/ethereum/sol_course/project_4/contracts/Campaign.sol",
  "compiler": {
    "name": "solc",
    "version": "0.8.16+commit.07a7930e.Emscripten.clang"
  },
  "schemaVersion": "3.4.9",
  "updatedAt": "2022-09-26T23:01:51.321Z",
  "networkType": "ethereum",
  "devdoc": {
    "kind": "dev",
    "methods": {},
    "version": 1
  },
  "userdoc": {
    "kind": "user",
    "methods": {},
    "version": 1
  }
}