{
  "contractName": "Campaign",
  "abi": [
    {
      "inputs": [
        {
          "internalType": "uint256",
          "name": "min",
          "type": "uint256"
        },
        {
          "internalType": "address",
          "name": "creator",
          "type": "address"
        }
      ],
      "stateMutability": "nonpayable",
      "type": "constructor"
    },
    {
      "inputs": [
        {
          "internalType": "uint256",
          "name": "",
          "type": "uint256"
        },
        {
          "internalType": "address",
          "name": "",
          "type": "address"
        }
      ],
      "name": "approvals",
      "outputs": [
        {
          "internalType": "bool",
          "name": "",
          "type": "bool"
        }
      ],
      "stateMutability": "view",
      "type": "function"
    },
    {
      "inputs": [
        {
          "internalType": "address",
          "name": "",
          "type": "address"
        }
      ],
      "name": "approvers",
      "outputs": [
        {
          "internalType": "bool",
          "name": "",
          "type": "bool"
        }
      ],
      "stateMutability": "view",
      "type": "function"
    },
    {
      "inputs": [],
      "name": "approversCount",
      "outputs": [
        {
          "internalType": "uint256",
          "name": "",
          "type": "uint256"
        }
      ],
      "stateMutability": "view",
      "type": "function"
    },
    {
      "inputs": [],
      "name": "manager",
      "outputs": [
        {
          "internalType": "address",
          "name": "",
          "type": "address"
        }
      ],
      "stateMutability": "view",
      "type": "function"
    },
    {
      "inputs": [],
      "name": "minimumContribution",
      "outputs": [
        {
          "internalType": "uint256",
          "name": "",
          "type": "uint256"
        }
      ],
      "stateMutability": "view",
      "type": "function"
    },
    {
      "inputs": [
        {
          "internalType": "uint256",
          "name": "",
          "type": "uint256"
        }
      ],
      "name": "requests",
      "outputs": [
        {
          "internalType": "string",
          "name": "description",
          "type": "string"
        },
        {
          "internalType": "uint256",
          "name": "value",
          "type": "uint256"
        },
        {
          "internalType": "address payable",
          "name": "recipient",
          "type": "address"
        },
        {
          "internalType": "uint256",
          "name": "approvalCount",
          "type": "uint256"
        },
        {
          "internalType": "bool",
          "name": "complete",
          "type": "bool"
        }
      ],
      "stateMutability": "view",
      "type": "function"
    },
    {
      "inputs": [],
      "name": "contribute",
      "outputs": [],
      "stateMutability": "payable",
      "type": "function"
    },
    {
      "inputs": [
        {
          "internalType": "string",
          "name": "description",
          "type": "string"
        },
        {
          "internalType": "uint256",
          "name": "value",
          "type": "uint256"
        },
        {
          "internalType": "address payable",
          "name": "recipient",
          "type": "address"
        }
      ],
      "name": "createRequest",
      "outputs": [],
      "stateMutability": "nonpayable",
      "type": "function"
    },
    {
      "inputs": [
        {
          "internalType": "uint256",
          "name": "index",
          "type": "uint256"
        }
      ],
      "name": "approveRequest",
      "outputs": [],
      "stateMutability": "nonpayable",
      "type": "function"
    },
    {
      "inputs": [
        {
          "internalType": "uint256",
          "name": "index",
          "type": "uint256"
        }
      ],
      "name": "finalizeRequest",
      "outputs": [],
      "stateMutability": "nonpayable",
      "type": "function"
    },
    {
      "inputs": [],
      "name": "getSummary",
      "outputs": [
        {
          "internalType": "uint256",
          "name": "",
          "type": "uint256"
        },
        {
          "internalType": "uint256",
          "name": "",
          "type": "uint256"
        },
        {
          "internalType": "uint256",
          "name": "",
          "type": "uint256"
        },
        {
          "internalType": "uint256",
          "name": "",
          "type": "uint256"
        },
        {
          "internalType": "address",
          "name": "",
          "type": "address"
        }
      ],
      "stateMutability": "view",
      "type": "function"
    },
    {
      "inputs": [],
      "name": "getRequestCount",
      "outputs": [
        {
          "internalType": "uint256",
          "name": "",
          "type": "uint256"
        }
      ],
      "stateMutability": "view",
      "type": "function"
    }
  ],
  "bytecode": "0x60806040523480156200001157600080fd5b50604051620016f9380380620016f983398181016040528101906200003791906200012b565b806000806101000a81548173ffffffffffffffffffffffffffffffffffffffff021916908373ffffffffffffffffffffffffffffffffffffffff16021790555081600181905550505062000172565b600080fd5b6000819050919050565b620000a0816200008b565b8114620000ac57600080fd5b50565b600081519050620000c08162000095565b92915050565b600073ffffffffffffffffffffffffffffffffffffffff82169050919050565b6000620000f382620000c6565b9050919050565b6200010581620000e6565b81146200011157600080fd5b50565b6000815190506200012581620000fa565b92915050565b6000806040838503121562000145576200014462000086565b5b60006200015585828601620000af565b9250506020620001688582860162000114565b9150509250929050565b61157780620001826000396000f3fe6080604052600436106100a75760003560e01c806382fde0931161006457806382fde093146101d85780638a9cfd5514610203578063937e09b11461022c578063ab2850da14610257578063d7bb99ba14610294578063d7d1bbdb1461029e576100a7565b806303441006146100ac5780630a144391146100d55780633fad1834146101125780634051ddac1461013d578063481c6a751461016c57806381d12c5814610197575b600080fd5b3480156100b857600080fd5b506100d360048036038101906100ce9190610ada565b6102c7565b005b3480156100e157600080fd5b506100fc60048036038101906100f79190610b65565b61047c565b6040516101099190610bad565b60405180910390f35b34801561011e57600080fd5b5061012761049c565b6040516101349190610bd7565b60405180910390f35b34801561014957600080fd5b506101526104a9565b604051610163959493929190610c01565b60405180910390f35b34801561017857600080fd5b506101816104f0565b60405161018e9190610c54565b60405180910390f35b3480156101a357600080fd5b506101be60048036038101906101b99190610ada565b610514565b6040516101cf959493929190610d20565b60405180910390f35b3480156101e457600080fd5b506101ed61060f565b6040516101fa9190610bd7565b60405180910390f35b34801561020f57600080fd5b5061022a60048036038101906102259190610e0b565b610615565b005b34801561023857600080fd5b506102416107bc565b60405161024e9190610bd7565b60405180910390f35b34801561026357600080fd5b5061027e60048036038101906102799190610e7f565b6107c2565b60405161028b9190610bad565b60405180910390f35b61029c6107f1565b005b3480156102aa57600080fd5b506102c560048036038101906102c09190610ada565b6108c9565b005b60008054906101000a900473ffffffffffffffffffffffffffffffffffffffff1673ffffffffffffffffffffffffffffffffffffffff163373ffffffffffffffffffffffffffffffffffffffff161461031f57600080fd5b60006004828154811061033557610334610ebf565b5b906000526020600020906005020190508060040160009054906101000a900460ff1615610397576040517f08c379a000000000000000000000000000000000000000000000000000000000815260040161038e90610f60565b60405180910390fd5b60026003546103a69190610fde565b816003015410156103ec576040517f08c379a00000000000000000000000000000000000000000000000000000000081526004016103e390611081565b60405180910390fd5b8060020160009054906101000a900473ffffffffffffffffffffffffffffffffffffffff1673ffffffffffffffffffffffffffffffffffffffff166108fc82600101549081150290604051600060405180830381858888f1935050505015801561045a573d6000803e3d6000fd5b5060018160040160006101000a81548160ff0219169083151502179055505050565b60026020528060005260406000206000915054906101000a900460ff1681565b6000600480549050905090565b60008060008060006001544760048054905060035460008054906101000a900473ffffffffffffffffffffffffffffffffffffffff16945094509450945094509091929394565b60008054906101000a900473ffffffffffffffffffffffffffffffffffffffff1681565b6004818154811061052457600080fd5b9060005260206000209060050201600091509050806000018054610547906110d0565b80601f0160208091040260200160405190810160405280929190818152602001828054610573906110d0565b80156105c05780601f10610595576101008083540402835291602001916105c0565b820191906000526020600020905b8154815290600101906020018083116105a357829003601f168201915b5050505050908060010154908060020160009054906101000a900473ffffffffffffffffffffffffffffffffffffffff16908060030154908060040160009054906101000a900460ff16905085565b60035481565b60008054906101000a900473ffffffffffffffffffffffffffffffffffffffff1673ffffffffffffffffffffffffffffffffffffffff163373ffffffffffffffffffffffffffffffffffffffff161461066d57600080fd5b60006040518060a0016040528086868080601f016020809104026020016040519081016040528093929190818152602001838380828437600081840152601f19601f8201169050808301925050505050505081526020018481526020018373ffffffffffffffffffffffffffffffffffffffff168152602001600081526020016000151581525090506004819080600181540180825580915050600190039060005260206000209060050201600090919091909150600082015181600001908161073791906112dc565b506020820151816001015560408201518160020160006101000a81548173ffffffffffffffffffffffffffffffffffffffff021916908373ffffffffffffffffffffffffffffffffffffffff1602179055506060820151816003015560808201518160040160006101000a81548160ff02191690831515021790555050505050505050565b60015481565b60056020528160005260406000206020528060005260406000206000915091509054906101000a900460ff1681565b60006040518060600160405280602b8152602001611517602b9139905060015434118190610855576040517f08c379a000000000000000000000000000000000000000000000000000000000815260040161084c91906113ae565b60405180910390fd5b506001600260003373ffffffffffffffffffffffffffffffffffffffff1673ffffffffffffffffffffffffffffffffffffffff16815260200190815260200160002060006101000a81548160ff021916908315150217905550600360008154809291906108c1906113d0565b919050555050565b600260003373ffffffffffffffffffffffffffffffffffffffff1673ffffffffffffffffffffffffffffffffffffffff16815260200190815260200160002060009054906101000a900460ff16610955576040517f08c379a000000000000000000000000000000000000000000000000000000000815260040161094c9061148a565b60405180910390fd5b6005600082815260200190815260200160002060003373ffffffffffffffffffffffffffffffffffffffff1673ffffffffffffffffffffffffffffffffffffffff16815260200190815260200160002060009054906101000a900460ff16156109f3576040517f08c379a00000000000000000000000000000000000000000000000000000000081526004016109ea906114f6565b60405180910390fd5b60048181548110610a0757610a06610ebf565b5b90600052602060002090600502016003016000815480929190610a29906113d0565b919050555060016005600083815260200190815260200160002060003373ffffffffffffffffffffffffffffffffffffffff1673ffffffffffffffffffffffffffffffffffffffff16815260200190815260200160002060006101000a81548160ff02191690831515021790555050565b600080fd5b600080fd5b6000819050919050565b610ab781610aa4565b8114610ac257600080fd5b50565b600081359050610ad481610aae565b92915050565b600060208284031215610af057610aef610a9a565b5b6000610afe84828501610ac5565b91505092915050565b600073ffffffffffffffffffffffffffffffffffffffff82169050919050565b6000610b3282610b07565b9050919050565b610b4281610b27565b8114610b4d57600080fd5b50565b600081359050610b5f81610b39565b92915050565b600060208284031215610b7b57610b7a610a9a565b5b6000610b8984828501610b50565b91505092915050565b60008115159050919050565b610ba781610b92565b82525050565b6000602082019050610bc26000830184610b9e565b92915050565b610bd181610aa4565b82525050565b6000602082019050610bec6000830184610bc8565b92915050565b610bfb81610b27565b82525050565b600060a082019050610c166000830188610bc8565b610c236020830187610bc8565b610c306040830186610bc8565b610c3d6060830185610bc8565b610c4a6080830184610bf2565b9695505050505050565b6000602082019050610c696000830184610bf2565b92915050565b600081519050919050565b600082825260208201905092915050565b60005b83811015610ca9578082015181840152602081019050610c8e565b60008484015250505050565b6000601f19601f8301169050919050565b6000610cd182610c6f565b610cdb8185610c7a565b9350610ceb818560208601610c8b565b610cf481610cb5565b840191505092915050565b6000610d0a82610b07565b9050919050565b610d1a81610cff565b82525050565b600060a0820190508181036000830152610d3a8188610cc6565b9050610d496020830187610bc8565b610d566040830186610d11565b610d636060830185610bc8565b610d706080830184610b9e565b9695505050505050565b600080fd5b600080fd5b600080fd5b60008083601f840112610d9f57610d9e610d7a565b5b8235905067ffffffffffffffff811115610dbc57610dbb610d7f565b5b602083019150836001820283011115610dd857610dd7610d84565b5b9250929050565b610de881610cff565b8114610df357600080fd5b50565b600081359050610e0581610ddf565b92915050565b60008060008060608587031215610e2557610e24610a9a565b5b600085013567ffffffffffffffff811115610e4357610e42610a9f565b5b610e4f87828801610d89565b94509450506020610e6287828801610ac5565b9250506040610e7387828801610df6565b91505092959194509250565b60008060408385031215610e9657610e95610a9a565b5b6000610ea485828601610ac5565b9250506020610eb585828601610b50565b9150509250929050565b7f4e487b7100000000000000000000000000000000000000000000000000000000600052603260045260246000fd5b7f526571756573742068617320616c7265616479206265656e20636f6d706c657460008201527f6564000000000000000000000000000000000000000000000000000000000000602082015250565b6000610f4a602283610c7a565b9150610f5582610eee565b604082019050919050565b60006020820190508181036000830152610f7981610f3d565b9050919050565b7f4e487b7100000000000000000000000000000000000000000000000000000000600052601260045260246000fd5b7f4e487b7100000000000000000000000000000000000000000000000000000000600052601160045260246000fd5b6000610fe982610aa4565b9150610ff483610aa4565b92508261100457611003610f80565b5b828204905092915050565b7f4d7573742072657175697265206d616a6f7269747920766f746520746f20666960008201527f6e616c697a652072657175657374000000000000000000000000000000000000602082015250565b600061106b602e83610c7a565b91506110768261100f565b604082019050919050565b6000602082019050818103600083015261109a8161105e565b9050919050565b7f4e487b7100000000000000000000000000000000000000000000000000000000600052602260045260246000fd5b600060028204905060018216806110e857607f821691505b6020821081036110fb576110fa6110a1565b5b50919050565b7f4e487b7100000000000000000000000000000000000000000000000000000000600052604160045260246000fd5b60008190508160005260206000209050919050565b60006020601f8301049050919050565b600082821b905092915050565b6000600883026111927fffffffffffffffffffffffffffffffffffffffffffffffffffffffffffffffff82611155565b61119c8683611155565b95508019841693508086168417925050509392505050565b6000819050919050565b60006111d96111d46111cf84610aa4565b6111b4565b610aa4565b9050919050565b6000819050919050565b6111f3836111be565b6112076111ff826111e0565b848454611162565b825550505050565b600090565b61121c61120f565b6112278184846111ea565b505050565b5b8181101561124b57611240600082611214565b60018101905061122d565b5050565b601f8211156112905761126181611130565b61126a84611145565b81016020851015611279578190505b61128d61128585611145565b83018261122c565b50505b505050565b600082821c905092915050565b60006112b360001984600802611295565b1980831691505092915050565b60006112cc83836112a2565b9150826002028217905092915050565b6112e582610c6f565b67ffffffffffffffff8111156112fe576112fd611101565b5b61130882546110d0565b61131382828561124f565b600060209050601f8311600181146113465760008415611334578287015190505b61133e85826112c0565b8655506113a6565b601f19841661135486611130565b60005b8281101561137c57848901518255600182019150602085019450602081019050611357565b868310156113995784890151611395601f8916826112a2565b8355505b6001600288020188555050505b505050505050565b600060208201905081810360008301526113c88184610cc6565b905092915050565b60006113db82610aa4565b91507fffffffffffffffffffffffffffffffffffffffffffffffffffffffffffffffff820361140d5761140c610faf565b5b600182019050919050565b7f4d75737420626520616e20617070726f76657220746f20617070726f7665207260008201527f6571756573740000000000000000000000000000000000000000000000000000602082015250565b6000611474602683610c7a565b915061147f82611418565b604082019050919050565b600060208201905081810360008301526114a381611467565b9050919050565b7f43616e6e6f7420617070726f7665207477696365000000000000000000000000600082015250565b60006114e0601483610c7a565b91506114eb826114aa565b602082019050919050565b6000602082019050818103600083015261150f816114d3565b905091905056fe56616c7565206d7573742062652067726561746572207468616e206d696e20636f6e747269627574696f6ea2646970667358221220a49059aacafeeaa0fe773fc1b436481a911eaa27cf23217b53e903eee9f78d9464736f6c63430008100033",
  "immutableReferences": {},
  "source": "// SPDX-License-Identifier: UNLICENSED\npragma solidity ^0.8.16;\n\ncontract Campaign {\n  struct Request {\n    string description;\n    uint value;\n    address payable recipient;\n    uint approvalCount;\n    bool complete;\n  }\n  address public manager;\n  uint public minimumContribution;\n  mapping(address => bool) public approvers;\n  uint public approversCount;\n  Request[] public requests;\n  // request id (in requests array) => address of approver -> boolean true false if approver in approvals\n  mapping(uint => mapping(address => bool)) public approvals;\n\n  modifier restricted() {\n    require(msg.sender == manager);\n    _;\n  }\n\n  constructor (\n    uint min,\n    address creator\n  ) {\n    manager = creator;\n    minimumContribution = min;\n  }\n\n  function contribute() public payable {\n    string memory errorMsg = \"Value must be greater than min contribution\";\n    require(msg.value > minimumContribution, errorMsg);\n    approvers[msg.sender] = true;\n    approversCount++;\n  }\n\n  function createRequest(string calldata description, uint value, address payable recipient)\n    public restricted {\n      Request memory newRequest = Request({\n        description : description,\n        value : value,\n        recipient : recipient,\n        approvalCount: 0,\n        complete: false\n      });\n      requests.push(newRequest);\n  }\n\n  function approveRequest(uint index) public {\n    require(approvers[msg.sender], \"Must be an approver to approve request\");\n    require(!approvals[index][msg.sender], \"Cannot approve twice\");\n    requests[index].approvalCount++;\n    approvals[index][msg.sender] = true;\n  }\n\n  function finalizeRequest(uint index) public restricted {\n    Request storage request = requests[index];\n    require(!request.complete, \"Request has already been completed\");\n    require(request.approvalCount >= approversCount / 2, \"Must require majority vote to finalize request\");\n    request.recipient.transfer(request.value);\n    request.complete = true;\n  }\n\n  function getSummary() public view returns (\n    uint,\n    uint,\n    uint,\n    uint,\n    address\n  ) {\n    return (\n      minimumContribution,\n      address(this).balance,\n      requests.length,\n      approversCount,\n      manager\n    );\n  }\n\n  function getRequestCount() public view returns (uint) {\n    return requests.length;\n  }\n\n}\n",
  "sourcePath": "/Users/jeffkang/blockchain/ethereum/sol_course/project_4/contracts/Campaign.sol",
  "compiler": {
    "name": "solc",
    "version": "0.8.16+commit.07a7930e.Emscripten.clang"
  },
  "schemaVersion": "3.4.9",
  "updatedAt": "2022-09-30T10:34:37.926Z",
  "networkType": "ethereum",
  "devdoc": {
    "kind": "dev",
    "methods": {},
    "version": 1
  },
  "userdoc": {
    "kind": "user",
    "methods": {},
    "version": 1
  }
}