{
  "contractName": "Lottery",
  "abi": [
    {
      "inputs": [],
      "stateMutability": "nonpayable",
      "type": "constructor"
    },
    {
      "inputs": [],
      "name": "manager",
      "outputs": [
        {
          "internalType": "address",
          "name": "",
          "type": "address"
        }
      ],
      "stateMutability": "view",
      "type": "function",
      "constant": true
    },
    {
      "inputs": [
        {
          "internalType": "uint256",
          "name": "",
          "type": "uint256"
        }
      ],
      "name": "players",
      "outputs": [
        {
          "internalType": "address",
          "name": "",
          "type": "address"
        }
      ],
      "stateMutability": "view",
      "type": "function",
      "constant": true
    },
    {
      "inputs": [],
      "name": "getManager",
      "outputs": [
        {
          "internalType": "address",
          "name": "",
          "type": "address"
        }
      ],
      "stateMutability": "view",
      "type": "function",
      "constant": true
    },
    {
      "inputs": [],
      "name": "enter",
      "outputs": [],
      "stateMutability": "payable",
      "type": "function",
      "payable": true
    },
    {
      "inputs": [],
      "name": "pickWinner",
      "outputs": [],
      "stateMutability": "payable",
      "type": "function",
      "payable": true
    }
  ],
  "bytecode": "0x608060405234801561001057600080fd5b50336000806101000a81548173ffffffffffffffffffffffffffffffffffffffff021916908373ffffffffffffffffffffffffffffffffffffffff160217905550610925806100606000396000f3fe60806040526004361061004a5760003560e01c8063481c6a751461004f5780635d495aea1461007a578063d500958414610084578063e97dcb62146100af578063f71d96cb146100b9575b600080fd5b34801561005b57600080fd5b506100646100f6565b60405161007191906104fe565b60405180910390f35b61008261011a565b005b34801561009057600080fd5b506100996102ca565b6040516100a691906104fe565b60405180910390f35b6100b76102f3565b005b3480156100c557600080fd5b506100e060048036038101906100db9190610554565b6103a1565b6040516100ed91906104fe565b60405180910390f35b60008054906101000a900473ffffffffffffffffffffffffffffffffffffffff1681565b6040518060600160405280602181526020016108cf6021913960008054906101000a900473ffffffffffffffffffffffffffffffffffffffff1673ffffffffffffffffffffffffffffffffffffffff163373ffffffffffffffffffffffffffffffffffffffff161481906101c4576040517f08c379a00000000000000000000000000000000000000000000000000000000081526004016101bb9190610611565b60405180910390fd5b5060006001805490506101d56103e0565b6101df9190610662565b9050600181815481106101f5576101f4610693565b5b9060005260206000200160009054906101000a900473ffffffffffffffffffffffffffffffffffffffff1673ffffffffffffffffffffffffffffffffffffffff166108fc479081150290604051600060405180830381858888f19350505050158015610265573d6000803e3d6000fd5b50600067ffffffffffffffff811115610281576102806106c2565b5b6040519080825280602002602001820160405280156102af5781602001602082028036833780820191505090505b50600190805190602001906102c5929190610416565b505050565b60008060009054906101000a900473ffffffffffffffffffffffffffffffffffffffff16905090565b66038d7ea4c68000341161033c576040517f08c379a00000000000000000000000000000000000000000000000000000000081526004016103339061073d565b60405180910390fd5b6001339080600181540180825580915050600190039060005260206000200160009091909190916101000a81548173ffffffffffffffffffffffffffffffffffffffff021916908373ffffffffffffffffffffffffffffffffffffffff160217905550565b600181815481106103b157600080fd5b906000526020600020016000915054906101000a900473ffffffffffffffffffffffffffffffffffffffff1681565b6000444260016040516020016103f893929190610890565b6040516020818303038152906040528051906020012060001c905090565b82805482825590600052602060002090810192821561048f579160200282015b8281111561048e5782518260006101000a81548173ffffffffffffffffffffffffffffffffffffffff021916908373ffffffffffffffffffffffffffffffffffffffff16021790555091602001919060010190610436565b5b50905061049c91906104a0565b5090565b5b808211156104b95760008160009055506001016104a1565b5090565b600073ffffffffffffffffffffffffffffffffffffffff82169050919050565b60006104e8826104bd565b9050919050565b6104f8816104dd565b82525050565b600060208201905061051360008301846104ef565b92915050565b600080fd5b6000819050919050565b6105318161051e565b811461053c57600080fd5b50565b60008135905061054e81610528565b92915050565b60006020828403121561056a57610569610519565b5b60006105788482850161053f565b91505092915050565b600081519050919050565b600082825260208201905092915050565b60005b838110156105bb5780820151818401526020810190506105a0565b60008484015250505050565b6000601f19601f8301169050919050565b60006105e382610581565b6105ed818561058c565b93506105fd81856020860161059d565b610606816105c7565b840191505092915050565b6000602082019050818103600083015261062b81846105d8565b905092915050565b7f4e487b7100000000000000000000000000000000000000000000000000000000600052601260045260246000fd5b600061066d8261051e565b91506106788361051e565b92508261068857610687610633565b5b828206905092915050565b7f4e487b7100000000000000000000000000000000000000000000000000000000600052603260045260246000fd5b7f4e487b7100000000000000000000000000000000000000000000000000000000600052604160045260246000fd5b7f4e6f7420656e6f7567682065746865722073656e740000000000000000000000600082015250565b600061072760158361058c565b9150610732826106f1565b602082019050919050565b600060208201905081810360008301526107568161071a565b9050919050565b6107668161051e565b82525050565b600081549050919050565b600082825260208201905092915050565b60008190508160005260206000209050919050565b6107a6816104dd565b82525050565b60006107b8838361079d565b60208301905092915050565b60008160001c9050919050565b600073ffffffffffffffffffffffffffffffffffffffff82169050919050565b60006108046107ff836107c4565b6107d1565b9050919050565b600061081782546107f1565b9050919050565b6000600182019050919050565b60006108368261076c565b6108408185610777565b935061084b83610788565b8060005b83811015610883576108608261080b565b61086a88826107ac565b97506108758361081e565b92505060018101905061084f565b5085935050505092915050565b60006060820190506108a5600083018661075d565b6108b2602083018561075d565b81810360408301526108c4818461082b565b905094935050505056fe4e65656420746f206265206d616e6167657220746f207069636b2077696e6e6572a2646970667358221220f269a014369f3fb206de6fc01f2173a9794f940eb877764fc4975f9cfe798ea864736f6c63430008100033",
  "immutableReferences": {},
  "source": "// SPDX-License-Identifier: UNLICENSED\npragma solidity ^0.8.16;\n\ncontract Lottery {\n  address public manager;\n  address[] public players;\n\n  constructor() {\n    manager = msg.sender;\n  }\n\n  function getManager() public view returns (address) {\n    return manager;\n  }\n\n  function enter() public payable {\n    // instance.enter({from: add, value: web3.utils.toWei('.001', 'ether')})\n    require(msg.value > .001 ether, 'Not enough ether sent');\n    players.push(msg.sender);\n  }\n\n  function getRandNum() private view returns (uint) {\n    return uint(keccak256(abi.encode(block.difficulty, block.timestamp, players)));\n  }\n\n  function pickWinner() public payable restricted('Need to be manager to pick winner') {\n    uint index = getRandNum() % players.length;\n    payable(players[index]).transfer(address(this).balance);\n    players = new address[](0);\n  }\n\n  modifier restricted(string memory message) {\n    require(msg.sender == manager, message);\n    _;\n  }\n}\n",
  "sourcePath": "/Users/jeffkang/blockchain/ethereum/sol_course/project_3/contracts/Lottery.sol",
  "compiler": {
    "name": "solc",
    "version": "0.8.16+commit.07a7930e.Emscripten.clang"
  },
  "schemaVersion": "3.4.9",
  "updatedAt": "2022-09-23T16:28:20.837Z",
  "networkType": "ethereum",
  "devdoc": {
    "kind": "dev",
    "methods": {},
    "version": 1
  },
  "userdoc": {
    "kind": "user",
    "methods": {},
    "version": 1
  }
}